S01A0000666C6173686C6F616465725F6C6F616465722E73726563AF
S113000000600020110400005B6900005B690000CF
S11300105B6900005B6900005B6900000000000090
S11300200000000000000000000000005B69000008
S11300305B690000000000005B6900005B69000070
S1130040B16A0000B16A0000B16A0000B16A000040
S1130050B16A0000B16A0000B16A0000B16A000030
S1130060B16A0000B16A0000B16A0000B16A000020
S1130070B16A0000B16A0000B16A0000B16A000010
S11303F0B16A0000B16A0000B16A0000FFFFFFFFAC
S1130400FFFFFFFFFFFFFFFFFFFFFFFFFEFFFFFFF9
S113041072B60E480E49886000220023002400258D
S113042000260027B846B946BA46BB46BC4609482A
S1130430854609488047094880470948804762B68D
S113044000200021074A9047FEE70000000000005A
S113045000ED00E000600020596A00005D690000C2
S113046097690000B104000072B60D4900200860CD
S1130470BFF36F8FBFF34F8F704780B546F22C42A6
S11304800FF23401074806F03DFAFFF7EDFF064886
S113049080F3088880F309880448BDE802400047D7
S11304A008ED00E000E0FF1F0056002011E4FF1FEC
S11304B080B5FFF7E2FFFEE70056002011E4FF1FBE
S11304C03BEBFF1F7DF2FF1F7FF2FF1F81F2FF1F37
S11304D083F2FF1F00000000000000000000000085
S11304E0000000003BEBFF1F3BEBFF1F0000000080
S11304F03BEBFF1FAFE8FF1FCB430020CB430020A3
S1130500CB430020CB430020CB430020CB4300202F
S1130510CB430020CB430020CB430020CB4300201F
S1130520CB430020CB430020CB430020CB4300200F
S1130530CB430020CB430020CB430020CB430020FF
S1130540CB430020CB430020CB430020CB430020EF
S1130550CB430020CB4300200517002009170020BF
S1130560FD16002001170020CB430020CB430020C0
S1130570CB4300201D330020CB430020293300202F
S1130580CB43002045330020CB430020CB43002045
S1130590CB430020CB430020CB430020CB4300209F
S11305A0CB430020CB430020CB430020CB4300208F
S11305B0CB430020CB430020CB430020CB4300207F
S11305C0CB430020CB430020CB430020D32C00207E
S11305D0CB430020CB430020CB430020CB4300205F
S11305E0CB430020CB430020CB430020CB4300204F
S11305F0CB43002077EAFF1FCB430020CB430020EE
S1130600CB430020CB430020CB430020CB4300202E
S1130610CB430020CB430020CB430020CB4300201E
S1130620CB430020A7430020A9430020AF43002070
S1130630CB430020CB430020B5430020CB43002014
S1130640CB430020CB430020CB430020CB430020EE
S1130650CB430020CB430020CB430020CB430020DE
S1130660CB430020CB430020CB430020CB430020CE
S1130670BD430020BF430020C7430020CB430020DC
S1130680CB430020C9430020CB430020CB430020B0
S1130690CB430020CB430020CB430020CB4300209E
S11306A0CB430020CB430020CB430020CB4300208E
S11306B0CB430020CB430020CB430020CB4300207E
S11306C0CB430020CB430020CB430020CB4300206E
S11308B0CB430020FFFFFFFFFFFFFFFFFFFFFFFF12
S11308C0FFFFFFFFFEFFFFFF72B60E480E49886070
S11308D0002200230024002500260027B846B9463C
S11308E0BA46BB46BC46094885460948804709487C
S11308F080470948804762B600200021074A904794
S1130900FEE7000000E0FF1F00ED00E000560020BD
S113091015380020EDEFFF1F27F0FF1F15EDFF1F17
S1130920BDF3FF1F00000000CFF3FF1F0000000015
S113093065F4FF1FB3F5FF1F53F4FF1FD7F4FF1F28
S113094075F6FF1F0000000017F7FF1F00000000EE
S113095009F4FF1F00000000E3F3FF1FD7F4FF1F9B
S113096089F6FF1F00000000F3F6FF1F00000000DF
S113097075F3FF1F000000003DF4FF1F000000009E
S1130980000000000000000025F7FF1F0000000029
S113099039F7FF1F000000005BF7FF1FB3F5FF1FCF
S11309A0000000000000000000000000814300205F
S11309B08B4300209543002000000000000000004D
S11309C0ED0800203B0900206F0900200000000012
S11309D0000000008F090020000000000000080053
S11309E00000100000002000000040000000800013
S11309F0000000010000000204000240C5F8FF1FCF
S1130A00F1F8FF1F2DF9FF1FF5F9FF1F000000008B
S1130A106FFAFF1F090D0020890E0020A30E00208D
S1130A200000000000000000BB0E00200040024057
S1130A300050024050634D604C5F4B5E5F1E0020CF
S1130A40891E0020F11E0020312000207B20002080
S1130A5025220020191F0020DB1F002079210020FF
S1130A601123002025230020000000007F22002005
S1130A7097220020000000001121002059230020AB
S1130A808D2300207B190020D1230020252D002058
S1130A907B2D0020C12D002000000000000000007C
S1130AA0E72D0020892F0020152E00203D2E002048
S1130AB0B92E0020F52E0020792E0020F50000200C
S1130AC0F90000200B010020490100200000000073
S1130AD0000000000100000001000000D1E8FF1F39
S1130AE0C0E6FF1FD0E6FF1FD8E6FF1F020000008C
S1130AF00000000019E9FF1FD4E5FF1FE4E5FF1F14
S1130B00D8E6FF1F040000000100000061E9FF1F98
S1130B1008E5FF1F18E5FF1FD8E6FF1F08000000C7
S1130B2000000000B3E9FF1F5CE5FF1F6CE5FF1F39
S1130B30D8E6FF1F100000000000000000000000C5
S1130B4008E7FF1F0000000018E7FF1F0000000077
S1130B500000000000000000000000000000000091
S1130B6000000000AD2F0020DF2F0020D93000202E
S1130B708F310020E4480020F13300204734002066
S1130B8061340020000000000000000087340020D1
S1130B90E9340020EF34002057350020F5350020DB
S1130BA0ED34002001360020C9340020043A262206
S1130BB000460020044600204046002068460020ED
S1130BC01F3A0020173B0020CF3B0020833D00202C
S1130BD0053C0020333C0020B53C00206B3D002048
S1130BE07B3D00207F3D00200000000005E0002048
S1130BF0704700207047002070474FF6FF70704721
S1130C0038B504463C4D0020C5E90000C5E90200A2
S1130C10C5E90400A8612862384800F09CF8E8613E
S1130C202046BDE834400FF2550100F092B970B58A
S1130C30314D0C46A969072904BF296A88421AD193
S1130C4000F08EF8C0EB0016D5E90001D5E90223C7
S1130C501018B6FBF0F00A2148434FF49661B0FB3C
S1130C60F1F0401D0A21B0FBF1F04FF496614843C6
S1130C702060002070BD012070BD00002DE9F84304
S1130C80064600F058F81C4F0446D7E90459884634
S1130C90B8690021421C651B68EB0909F8694945DC
S1130CA002D82CBFA8420122012ABA6106D0042A24
S1130CB008D0052A0ED0072A0FD018E0C7E900484B
S1130CC03E6214E0D7E90001201A68EB0101C7E98C
S1130CD000010CE0C7E9024809E0D7E90201201A43
S1130CE068EB0101C7E90201304600F045F9C7E9A4
S1130CF00448BDE8F183000000470020803801006B
S1130D001C48002101606FF07F421B494A600022A9
S1130D108A6007220A601949194A0968C900B1FBA7
S1130D20F2F101B90121416070471348016821F0D3
S1130D300601016070470F490A68124800680B6891
S1130D40C0430002000A9A42F6D1002110EB02606F
S1130D5051EB12217047074949684843C00870475E
S1130D6006480068704703480168491C01607047E1
S1130D7000000000D848002010E000E03C450020BE
S1130D8040420F0018E000E0012820D18248834A45
S1130D9019B1022911D006D370474168114041604E
S1130DA00168114012E04168114041F480714160D2
S1130DB07B48016821F0020108E04168114041F4D8
S1130DC0407141600168114041F440710160704715
S1130DD000B1704710B57348734B704C734A11B12E
S1130DE002290AD010BD1168214011600021196048
S1130DF051682140516000210CE01168214041F408
S1130E0000711160012119605168214041F40071A1
S1130E1051600121016010BD012825D15F4A644859
S1130E2011B102290CD0704701681140016041687A
S1130E3011404160816811408160C168114012E035
S1130E400168114041F4E06101604168114041F4DE
S1130E50E06141608168114041F4E0618160C168F2
S1130E60114041F4E061C1607047A8B951484B4A50
S1130E7011B1022906D070474168114041600168F0
S1130E80114008E04168114041F40071416001687B
S1130E90114041F400710160704780B500F0AAF878
S1130EA04548416B41F478514163016841F4403154
S1130EB00160016841F48061016001BD3E483F4A20
S1130EC0416B21F47851416301681140016070471E
S1130ED03948016B41F480210163016B490301D45A
S1130EE00020704736490A7842F080020A700723CE
S1130EF00A781A42FCD1016841F4E0210160012022
S1130F0030490870304908707047304830490068EB
S1130F100968C0F30360401CB1FBF0F0704701287E
S1130F209ABF2B480068002070470020704729486A
S1130F300068C0F3006000B9704780B52648416876
S1130F40080005D00120884724494FF0FF3008608D
S1130F5001BD01280FD1224A224B102010704FF0FE
S1130F600040214A10601B4802681A4042F42022C3
S1130F70026019484160704701280BD11B49194A86
S1130F804FF00040086013480168114001600020E0
S1130F90114948607047000000D00440FFF0FFFE94
S1130FA014F10F40940094421400944200A00440B1
S1130FB010C0044048A0044004800440FFF3F8FF3C
S1130FC00C2107401C28E4428428E4424480044065
S1130FD03C45002004D00440FC470020A0D004403D
S1130FE03FE400E0FFFFF0FE04E100E084E100E004
S1130FF07047FEE70848817804290BD1017801F095
S11310009F010170FF218278012A04BF034A1278EC
S1131010491EF8D17047000001E0074002D00740A4
S1131020012811D80FF22C028056012904D100F0B6
S11310301F029140054A04E0012100F01F02914083
S1131040034A400942F820107047000000E100E024
S113105080E100E01A1B0000012811D80FF22C02D5
S11310608056012904D100F01F029140054A04E092
S1131070012100F01F029140034A400942F8201068
S11310807047000000E100E080E100E01819000072
S113109038B504460D46002000F0DAF86648674A81
S11310A00560446000211160016881F3088881F3C0
S11310B0098840688047BDE83240002000F0C8B885
S11310C05F498968096900281EBF10F1010F5D4A54
S11310D0904206D00A69904203D34B699A18904211
S11310E008D34A6A904207D3896A891888428041A2
S11310F0C00F704701207047002070472DE9F0476A
S11311004F4F514CB868006900F1700925460AE058
S113111099F81010014205D06869EA68816952683B
S113112028469047183528680028F1D14FF47A7082
S1131130FFF711FE0546FFF7F8FE002650BBFFF748
S1131140BFFF38B3B868006990F88E00C00703D4B5
S113115000210020FFF79CFFB9F812004FF6FF7141
S1131160884208BF41F2883005FB00F6FFF7E3FD33
S113117080468A4676B1FFF7DEFDB0EB080061EBEE
S11311800A010027B94201D8B04203D3002100204C
S1131190FFF77EFF254600E0183528680028E9D0CF
S11311A0E9680968284688470028F5D0002DE1D071
S11311B006E0A54203D0E1688968204688471834D0
S11311C020680028F5D12846BDE8F08738B500F03E
S11311D0DBF8FFF762FE1A4CA06800688047002025
S11311E000F0EEF8FFF78CFD04F1200000F0EAF8BF
S11311F0206800688047A06840688047FFF77EFF4A
S1131200E061016919B109680A0018BF8847E069FB
S1131210416919B109680A0018BF8847E068006885
S11312208047E569E06840688047E868C16808006D
S1131230F8D028468847F5E75047002008ED00E03D
S11312409444002011E4FF1F1CE6FF1F70470000B8
S113125070B50446022C04D0002000F019F9012CCA
S11312600ED00026114D06E04019C16889680A00B5
S113127018BF8847761C1820704341590029F3D1C0
S113128074B900F087F8FFF750FD00F028F9084919
S113129000200860012000F093F8FFF70FFE62B60B
S11312A0BFF36F8FBFF34F8F70BD00BF1CE6FF1FEE
S11312B008ED00E070B5404E04460D46D6E9000145
S11312C0002908BF002806D14FF47A70FFF743FDC8
S11312D00021C6E90001657000202070C4E9020005
S11312E0206170BD38B504460D46607838B172B6D9
S11312F06078401E60700020207062B632BD9DB1DF
S1131300207898B1FFF717FDD4E90223801A2A4DFB
S11313109941D5E9002300F00FF92169814211D2E6
S113132072B60020207062B6022032BD15F1010FA2
S113133008D072B60120207062B6FFF7FCFCC4E945
S113134002012561032032BD4178FF2901D101202A
S1131350704772B64178491C417062B600207047EC
S1131360002070470160704772B60168491C016033
S113137062B601680029FCD10120704772B6016889
S1131380491E016062B6704772B60C4900200860BD
S113139062B6704772B609480168491C016070471B
S11313A006480168022901D20021EAE70168491EC2
S11313B0016070470000000048470020F847002003
S11313C07047000008B904207047204A2049126879
S11313D0C2F3036231F81210090301D1642070478B
S11313E0B1F5001F08BF4FF4802100220260416064
S11313F04FF48072012181604FF40061C16015498E
S113140091F900309A404261C978816100210161FB
S11314100020704708B9042070475B1E194208BFBA
S11314201A4201D0652070470368994221BF406881
S1131430C0185118884234BF6620002070470649FE
S1131440884214BF6B200020704700004C80044089
S113145020E5FF1F280002406B66656B68B1042A13
S113146002D0082A0BD008E079B110290DD3202925
S11314700BD0A1F12100132807D3042070471029B1
S113148003D0A1F111000328F7D200207047000017
S11314900349096851F47001014A1160704700BFA3
S11314A004F0014080B518491848086018491948E3
S11314B0421A194888421CBF002A00F0B5F81748A0
S11314C01749091A18BF00F0EBF816491648421AD2
S11314D004D0BDE80840154800F0A6B801BD144882
S11314E04FF0FF31016041608160C1600161416181
S11314F08161C1610F48016041608160C160016127
S113150041618161C161704708ED00E000E0FF1FA7
S11315106C40002038430020304400200047002065
S1131520504C00202C4400202C4400200052002069
S113153080E100E080E200E01B4213D1094236D191
S11315402AB18446B0FBF2F002FB10C2704700F0EF
S1131550ABB8FCD30022002370470B00020000212B
S113156000207047904271EB030CF6D370B5B1FACA
S113157081F4B3FA83F52C1BA340C4F1200532FA9D
S113158005F63343A2405FF00046E64002E05B0804
S11315905FEA3202841A71EB030524BF2046294610
S11315A07641F4D302000B003000002170BD012A03
S11315B0CFD970B5140C20D0B1FA81F4B2FA82F507
S11315C0C4F120046419B4F12006D6D3B2405FF00C
S11315D00044F440002502E052085FEA3303C61ACF
S11315E071EB020E24BF3046714664416D41F3D362
S11315F002000B002000290070BD0C46B1FBF2F183
S113160002FB11452D0445EA1045B5FBF2F402FB3B
S1131610145580B240EA0545B5FBF2F002FB1052C6
S113162040EA044070BD000062B38B0708D0521E2C
S113163011F8013B00F8013B00F024808B07F6D140
S1131640830740F0208000BF103A07D330B4B1E8DC
S11316503810103AA0E83810F9D230BC530724BF30
S1131660B1E80810A0E8081044BF51F8043B40F862
S1131670043BD20724BF31F8022B20F8022B44BFCD
S11316800B7803707047083A07D3B1E80810083A9A
S113169040F8043B40F804CBF7D25307E4E70000DA
S11316A0002200F007B800007047000062F30F2228
S11316B062F31F42401810F0030308D0C91A1FD365
S11316C0DB0748BF00F8012D28BF20F8022D1300C6
S11316D030B414461546103928BF20E93C00FAD826
S11316E0490728BF20E90C0048BF40F8042D8900B1
S11316F028BF20F8022D48BF00F8012D30BC7047E8
S1131700C91818BF00F8012DCB0728BF00F8012D18
S113171070470000BFF34F8F0448054A016801F485
S1131720E06111430160BFF34F8FFEE70CED00E071
S11317300400FA05EEE7EDE7ECE7EBE7DFF8EC157C
S1131740C968C9680020086070472DE9F041DFF8D6
S1131750DC5582B0E86900248DF801404669002E0A
S113176061D0E968C9680A68012A4BD001F108020E
S113177074680023091DA04704001FBF42F21270C1
S1131780844242F2137084424DD1E868C168D1F8B2
S11317900880B8F1000F46D04E68377837B1122F61
S11317A004DA806800EBC700083800E00020086213
S11317B000281CBF006800281BD0694605F12000E2
S11317C000F0BEFA040016D19DF8000040B14FF4B9
S11317D0E750791EC840C00758BF42F211740AD5B9
S11317E0EA68D268126A126841463046904700247B
S11317F006E042F210743946204600F01FFA94B90C
S113180001200DE0086A48B14168080003D00DF1D9
S11318100100884704460CB1002001E09DF8010056
S1131820E968C96808602046BDE8F68180B501789A
S1131830002000F003FADFF8F404C0694169096983
S113184088470220FFF704FDBFF34F8FDFF8E00461
S1131850DFF8E024016801F4E06111430160BFF3A3
S11318604F8FFEE7DFF8C404C068C06814210C3051
S113187000F080BA10B5044600F070FBFFE7217851
S1131880BDE81040DAE110B5DFF8A024126852690F
S11318900446A16860689047F1E710B500F04AF883
S11318A0DFF88804C068C0686168016108210177B5
S11318B00020217800F0C2F9BDE8104000F0CABC55
S11318C030B583B0DFF86444A5680021019100912C
S11318D06B4681684068AD6801AAC9B2C0B2A84726
S11318E0E268D2680021116100998A08019900F028
S11318F0B9F937BD10B5DFF834249268D2680446CC
S11319006068A168C0B29047B9E710B500F012F85A
S113191000F012F8042101770020B0E710B500F0C0
S113192009F800F009F8032101770020A168BDE857
S11319301040AEE1044695E7DFF8F003C068C068E4
S1131940A168016161684161704738B500F088F8A9
S1131950002141610161007F042804D128680069E5
S1131960804704B90446E868C068017F204600F057
S113197065F942F21270844208D1E868C068007FB9
S1131980082804BFBDE8314000F0A6BC31BD2DE9F4
S1131990FC4100F065F8016921B900202070FFF7CF
S11319A0D4FF5AE0012121700669476900200090A4
S11319B00123E869D0F814C0DCF804C06A4601A920
S11319C0E0475FEA000805D0E8694169C9688847CB
S11319D0404603E0009830B942F21270FFF7B5FFB9
S11319E0002020703AE0B04288BF30460090E8689A
S11319F0C068017F082913D10199C16000998161F0
S1131A000198009900F030FC804642F27D708045D8
S1131A101CBF42F2747080450BD14FF0000808E0FF
S1131A202B68019A00999B6838469847804600982D
S1131A30C7190098361A06D0B8F1000F09D0E86922
S1131A404169C96888474046FFF77FFF002020703E
S1131A5003E0E868C068066147610020BDE8F681DC
S1131A60B24D0446E868C06870472DE9F047AF4DB1
S1131A708AB00446E868C068016921B90020207072
S1131A80FFF763FF4EE00121217006694769C168D1
S1131A90027F212E2CBF4FF02008B046A9B1424648
S1131AA001A8FFF7C1FDE869D0F814C0DCF808C04C
S1131AB00123424601A9E047A6EB080606B168B334
S1131AC0FFF743FF002020702CE0032A08EB0709EE
S1131AD006D12B685B6801AA4146384698470CE05A
S1131AE0102A18BF4F46DED1407F0090434601AA1A
S1131AF0394605F1200000F015FC5FEA000A4F4664
S1131B00D1D0E8694569AD680123002201A9A8473D
S1131B105046FFF71AFF0020207004E0E868C06810
S1131B200661476100200AB0BDE8F08710B57F4B1D
S1131B301B68DB680446E268A168606898479EE613
S1131B402DE9F04105467C4C6E68D5F80880E868BC
S1131B5076492060002749680C3130B10A68904208
S1131B6023BF4968491C814204273046FFF7A8FA7D
S1131B7000B904272978384600F060F89FB96660F8
S1131B800020FFF765FB2068C4F8088018B180F3D3
S1131B90088880F30988616840468847BDE8F041B9
S1131BA00020FFF755BBBDE8F08138B504466068F6
S1131BB0FFF786FA08B9042005E065680120FFF7FD
S1131BC047FBA068A8472178BDE8344036E010B54B
S1131BD00446211D594800F0EDFB50E610B50446BB
S1131BE0A3686168554804F10C0200F00BFC46E65A
S1131BF01CB5044668460021002206C0A36861683B
S1131C004E486A4600F02AFCA268694600F045F88E
S1131C1013BD10B5FFF78EFE4448C168C968A268B9
S1131C200A6162684A6110220A77C068C068E16884
S1131C3041770020A168BDE810405BE010B584B096
S1131C40A02201908DF80020002200F06AF88DF89F
S1131C500220029102228DF8032000234469A46823
S1131C600C225BE010B588B0A72300F03AF80020FE
S1131C70531C8DF8033006E06C4651F8203004EB19
S1131C808004401CA3609042F6DB00F021F800239E
S1131C901AE010B584B0A3222FE010B588B0AF23AA
S1131CA000F01FF802238DF8033040B99008801C1F
S1131CB08DF80300029203A8FFF7C6FC01E00020A0
S1131CC00290002300F004F86946A04708B010BD54
S1131CD01648C0699DF803104469A46889000A1D68
S1131CE070478DF80030019000238DF801308DF895
S1131CF00230704710B584B0B0228DF800200190F6
S1131D00012200F00EF8029100228DF80220002337
S1131D1002228DF803200C224469A4686946A04776
S1131D201FBD0248C0698DF801207047944400200B
S1131D300CED00E00400FA0558470020B4440020EC
S1131D40002818BF002901D10420704708480078F2
S1131D5000F00302022A08BF002005D000F0C000F2
S1131D6080280CBF0120022008700020704700BFAB
S1131D7002000240002200F09DBB000038B5924CE6
S1131D8065682A46042104F1200000F0ADFB6A4690
S1131D90012104F1200000F0A7FB2868009908182D
S1131DA0401E6860002032BDF8B5044686480D46E2
S1131DB0416B16464A4202EA0401671AEF197F4250
S1131DC03A406B465242203000F0AEFB48B99DF8D1
S1131DD0000008B16C20F2BD32462946204600F0CE
S1131DE0E7FBF2BD2DE9F047774C88B08046A06848
S1131DF00069056B8A464FEA9A06B6009146AAEB3B
S1131E00060705B101254FF0FF3004902FB13A4683
S1131E1006EB090104A8FFF707FCCAF100008008DB
S1131E208000414203AA404600F0ACF8002834D1B7
S1131E309DF80C0000B1002506EB080A3EB13346BC
S1131E404A46414604F1200000F0E4FB38B93FB1B2
S1131E50042304AA514604F1200000F0DBFBE0B99E
S1131E60EDB2CDB16EB105A802904B4606A8019023
S1131E70324600F015F8414604F1200000F0FCFB66
S1131E8048B94FB100F048F800F00AF8514604F19F
S1131E90200000F0F1FB00B9002008B0BDE8F08795
S1131EA0A0680069806DC0B200907047F0B5464DDF
S1131EB087B00446A8680069066B06B1012648424B
S1131EC0800804928000474203AA3946204600F065
S1131ED059F8F8B99DF80C0018B1002601E0241D4A
S1131EE03F1FB7B1042304AA214605F1200000F0E6
S1131EF091FB78B9002EF2D000F00EF8A868FFF735
S1131F00D0FF214605F1200000F0B6FB0028E6D002
S1131F1000E0002007B0F0BD05A8029004AB06A8BD
S1131F2001900422704770B504460D46264E274B97
S1131F302A46214606F1200000F0CEFB68B9B168BC
S1131F4009690A6B4AB12A4606F120008B6D2146C5
S1131F50BDE87040DBB200F0FBBB70BD10B51A4C9D
S1131F601A4904F1200000F031FC50B9A168096954
S1131F700A6B1AB1896D00F02DF810B9144A0121C9
S1131F80117010BD38B5154600222A700A460E4C51
S1131F9001466B4604F1200000F0C6FA90B99DF8A2
S1131FA0001029709DF8001061B1094D297849B9D4
S1131FB0A0680069816D00F00DF808B16C2032BD95
S1131FC00121297032BD0000944400206B66656BCA
S1131FD04C4C0020C9B204F1200000F00FBC0000FA
S1131FE0416882688A4209D2891A416082660FF286
S1131FF0ED110160012181600020704742F2787088
S113200070470FF2050113E0416ADFF8F8324A899C
S11320108282CA68921E42604A689A4202D1097A50
S1132020022902DB42F2757070470FF20D0100BF06
S1132030016000207047000010B5044682B0606A59
S113204041686268A1610168C91E9142A16002D31E
S113205042F2767016BD008910B142F2777016BD57
S11320608DF800006946A848FFF76AFE9DF8000055
S113207010B142F2817016BD2046FFF7B1FF16BDC4
S113208038B5A24D2B689B680446626A216EE06DE8
S1132090984780B928680069804760B900F03AF829
S11320A000F033F80098616E884200D038E00FF2F7
S11320B02D102060002032BD38B50446934D00F049
S11320C029F82B68626AE06D9B6810219847D8B99B
S11320D0E06D1030E065206E10382066112828BFAE
S11320E08B480FD208B18B480CE028680069804700
S11320F050B900F00AF80098616E884200D00FE0F1
S11321000FF2D9002060002032BD694604F11C00A2
S113211000F09CBB616A102204F11C0000F080BB3B
S113212042F27A7032BD10B5044604F11C0000F08E
S113213071FB206E11282CBF7548764891E0734BD3
S11321401B68426E016EC06DDB68184710B504460B
S113215042F27F70E26D11000ED0606E04F118013E
S11321609047012803D12046BDE8104038E70228F3
S113217002D100F06FF8002010BD10B500F15C0131
S1132180031D1C684A685A60944202D242F2767077
S113219010BD0A7AD20707D50A685C69A24203D146
S11321A048689860002010BD90F85A10C9075CBFB9
S11321B0BDE81040FFF714BF42F27C7010BD90F8E8
S11321C05A10C90748BFFFF7C9BE504A126852697E
S11321D05C304168006810470000000070B5044698
S11321E004F15805616A28461022FFF72DFA5A2691
S11321F00120415D7618401C1028FAD32878F1B2EA
S1132200884202D042F2797070BD687807281ED8DF
S1132210DFE800F01B04080C10131B172046BDE870
S11322207040AAE72046BDE870407CE72046BDE840
S1132230704084E742F2127070BD2046BDE87040E1
S113224084E72046BDE87040B9E7002070BD42F243
S11322507B7070BD10B5304C70212046FFF78AFDAD
S11322602E482060002010BDF8B504460D4600201D
S113227000262B4FAE4217D03869C0F11000A91BBD
S113228009E079B13B69325DDA55761C3A69521C32
S11322903A61401E491E0028F3D1386100F005F868
S11322A010B9E7E742F27D70F2BD1B491C4A4A624D
S11322B00020CA6842B10869904202D2401C0861F9
S11322C004E042F2747070478A6E12B908460968D5
S11322D00847521E8A66704738B50F4890F859105F
S11322E004290CD100F15C042568280004D00020E6
S11322F0FEF7AEFFA068A84742F27E7032BD002010
S113230032BD000053544D50B44400209444002086
S113231001FCFF1FC9FBFF1FA04900204BFBFF1F4F
S1132320104A00202DE9F8435FEA0008914614BFE3
S1132330B9F1000F04200F461D4619D0089C22460F
S11323402946384600F01AF890B904E0716849F853
S1132350041B3F1D2D1F5DB1064806680648376003
S1132360032101700472404600F086FC0028EDD081
S1132370BDE8F28340E5FF1F0700024010B510F0EE
S1132380030F08BF11F0030F01D0652010BD022A0E
S11323900EDA0C18641E012A06D1002804BF481E58
S11323A0072805D1002010BD002AFBD1FF2CF9D944
S11323B0042010BD10B50A46002818BF002A01D118
S11323C0042010BD0E4B1C78002104F00304022CE1
S11323D014D0452159711178597251781972917834
S11323E0D971D17899711179597351791973917996
S11323F0D972D179997200F03FFC0146084610BDAC
S113240002000240F8B5160004460D461F4601D1ED
S11324100420F2BD3A46FFF721F8C8B90D4843211C
S113242041700570102D0C4800683168416003D07C
S1132430A5F11101032903D2082F04BF716881603B
S1132440204600F019FC05462046FFF721F82846EF
S1132450F2BD00BF0600024040E5FF1FF8B51500BD
S113246007460C461E4601D10420F2BD3246FEF753
S1132470F5FFA8B90B48412141700470384600F0BB
S1132480FBFB68B9084909684A682A60102C03D024
S1132490A4F11102032A03D2082E04BF89686960DB
S11324A0F2BD00BF0600024040E5FF1F62F30F22A9
S11324B062F31F4200B500BF1300964694461039DC
S11324C028BFA0E80C50FAD85FEA417C28BF0CC0B2
S11324D048BF40F8042BC90728BF20F8022B48BF87
S11324E000F8012B00BD0000002818BF002A01D10C
S11324F004207047072915D8DFE801F00408080A0A
S11325000C0E1012C0681060002070474068FAE793
S11325108068F8E70068F6E70120F4E74069F2E72D
S11325208069F0E76A2070472DE9F04180461E007B
S11325300D46174608BF042034D00423FEF76AFF73
S113254080BBD8F814307A195F42C2F1000C07EA54
S11325500C0CCCF1000C2F40ACEB07070021B7FBAF
S1132560F3F7DFF844C00AE0DCF800E0203C6FEA4F
S11325700E0E2EFA04F4E40748BF491C5D19954277
S11325800AD2B5FBF3F4202C38BFDCF804E0EED318
S1132590D8F818E07445E7D319B1B94234BF022121
S11325A001213170BDE8F0811800024000F07CBBCD
S11325B0134680B50A4601461846FFF735F8002051
S11325C002BD70B510F0030F0C46154612D0B0F1E1
S11325D0005F0FD22118491EB1F1005F0AD3C0F188
S11325E0005632462946FFF71FF8A21B71194FF017
S11325F0005001E022462946FFF716F8002070BD7E
S113260010B514460A462146BDE81040012300F0E7
S11326108BBB00002DE9F041044615000E461F4611
S113262008BF042022D004233A46FEF7F3FE5FEAF3
S1132630000802D01AE0361D3F1F9FB10C48006805
S1132640066055F8041B416006200A4908702046BC
S113265000F012FB80462069010018BF8047B8F1E2
S1132660000FE8D02046FEF713FF4046BDE8F08196
S113267040E5FF1F070002402DE9F04106465FEAEE
S113268003080D46174608BF04201ED00423FEF796
S1132690C1FED0B9069C01E03F1F2D1DAFB10C480F
S11326A00C490068056002220A700C7158F8041B7A
S11326B08160304600F0E0FA0028EDD0079901B1BE
S11326C00D60089909B100220A60BDE8F08100BFDD
S11326D040E5FF1F070002402DE9F04198460446FB
S11326E00D4616460823FEF795FE07001AD1701909
S11326F0461EE068B6FBF0F100FB11622AB1491CEA
S11327004843461E01E0E0684519AE4217D30E481F
S11327100E4900680560092008704046FEF78FFEE8
S1132720070002D03846BDE8F081204600F0A4FA44
S113273007462069010018BF8047002FE3D02046D8
S1132740FEF7A6FEEEE700BF40E5FF1F07000240CC
S11327502DE9F84F984604460D4692460823FEF7A5
S113276059FE60BB6068A168164FB0FBF1F968427E
S1132770C9F1000108404642AE4208BF4E4403E09E
S1132780AAEB0B0A5D444E44BAF1000F16D00E4971
S1132790701BD346824588BF834609680D600121BA
S11327A039704FEADB00010A3971F87087F802804A
S11327B0204600F061FA0028E2D000E00020BDE8E5
S11327C0F28F00BF0700024040E5FF1F38B5040048
S11327D0084601D1042032BD074A44211170FEF796
S11327E02EFE050007D1204600F046FA0546204695
S11327F0FEF74EFE284632BD0700024008B9042009
S11328007047034A40235370117000F035BA00BF7B
S1132810060002404FF0FF31016000214160704723
S113282030B544680368141944600FF24C0407E09F
S113283011F8015B85EA136554F8255085EA0323F2
S113284015466A1E002DF3D1036030BD30B54368D0
S1132850026813F0030F0CD003F00303C3F1040365
S11328600FF21404150E54F825505B1E85EA02225B
S1132870F8D102600A6030BD00000000B71DC10439
S11328806E3B8209D926430DDC7604136B6BC517A6
S1132890B24D861A0550471EB8ED08260FF0C9221E
S11328A0D6D68A2F61CB4B2B649B0C35D386CD3186
S11328B00AA08E3CBDBD4F3870DB114CC7C6D04852
S11328C01EE09345A9FD5241ACAD155F1BB0D45B2E
S11328D0C2969756758B5652C836196A7F2BD86E96
S11328E0A60D9B6311105A6714401D79A35DDC7D0E
S11328F07A7B9F70CD665E74E0B6239857ABE29CFA
S11329008E8DA191399060953CC0278B8BDDE68F2D
S113291052FBA582E5E66486585B2BBEEF46EABA15
S11329203660A9B7817D68B3842D2FAD3330EEA90D
S1132930EA16ADA45D0B6CA0906D32D42770F3D071
S1132940FE56B0DD494B71D94C1B36C7FB06F7C3A5
S11329502220B4CE953D75CA28803AF29F9DFBF69D
S113296046BBB8FBF1A679FFF4F63EE143EBFFE585
S11329709ACDBCE82DD07DEC77708634C06D47309D
S1132980194B043DAE56C539AB0682271C1B4323A5
S1132990C53D002E7220C12ACF9D8E1278804F161D
S11329A0A1A60C1B16BBCD1F13EB8A01A4F64B0585
S11329B07DD00808CACDC90C07AB9778B0B6567C51
S11329C069901571DE8DD475DBDD936B6CC0526F2D
S11329D0B5E6116202FBD066BF469F5E085B5E5A95
S11329E0D17D1D576660DC5363309B4DD42D5A490D
S11329F00D0B1944BA16D84097C6A5AC20DB64A8C1
S1132A00F9FD27A54EE0E6A14BB0A1BFFCAD60BB2C
S1132A10258B23B69296E2B22F2BAD8A98366C8E14
S1132A2041102F83F60DEE87F35DA9994440689D0C
S1132A309D662B902A7BEA94E71DB4E0500075E470
S1132A40892636E93E3BF7ED3B6BB0F38C7671F7A4
S1132A50555032FAE24DF3FE5FF0BCC6E8ED7DC29C
S1132A6031CB3ECF86D6FFCB8386B8D5349B79D184
S1132A70EDBD3ADC5AA0FBD8EEE00C6959FDCD6DF2
S1132A8080DB8E6037C64F643296087A858BC97EA8
S1132A905CAD8A73EBB04B77560D044FE110C54B18
S1132AA0383686468F2B47428A7B005C3D66C15888
S1132AB0E4408255535D43519E3B1D252926DC216C
S1132AC0F0009F2C471D5E28424D1936F550D83230
S1132AD02C769B3F9B6B5A3B26D6150391CBD40790
S1132AE048ED970AFFF0560EFAA011104DBDD01410
S1132AF0949B93192386521D0E562FF1B94BEEF574
S1132B00606DADF8D7706CFCD2202BE2653DEAE62F
S1132B10BC1BA9EB0B0668EFB6BB27D701A6E6D30F
S1132B20D880A5DE6F9D64DA6ACD23C4DDD0E2C00F
S1132B3004F6A1CDB3EB60C97E8D3EBDC990FFB94B
S1132B4010B6BCB4A7AB7DB0A2FB3AAE15E6FBAAA7
S1132B50CCC0B8A77BDD79A3C660369B717DF79F97
S1132B60A85BB4921F4675961A163288AD0BF38C87
S1132B70742DB081C330718599908A5D2E8D4B5927
S1132B80F7AB085440B6C95045E68E4EF2FB4F4AA7
S1132B902BDD0C479CC0CD43217D827B9660437F17
S1132BA04F460072F85BC176FD0B86684A16476C87
S1132BB093300461242DC565E94B9B115E565A156B
S1132BC087701918306DD81C353D9F0282205E062F
S1132BD05B061D0BEC1BDC0F51A69337E6BB52338F
S1132BE03F9D113E8880D03A8DD097243ACD56200F
S1132BF0E3EB152D54F6D4297926A9C5CE3B68C13B
S1132C00171D2BCCA000EAC8A550ADD6124D6CD22E
S1132C10CB6B2FDF7C76EEDBC1CBA1E376D660E70E
S1132C20AFF023EA18EDE2EE1DBDA5F0AAA064F40E
S1132C30738627F9C49BE6FD09FDB889BEE0798D4A
S1132C4067C63A80D0DBFB84D58BBC9A62967D9EA6
S1132C50BBB03E930CADFF97B110B0AF060D71AB96
S1132C60DF2B32A66836F3A26D66B4BCDA7B75B886
S1132C70035D36B5B440F7B10A4870210170802174
S1132C8001700178C909FCD00078810601D567205C
S1132C907047C10601D568207047C0074CBF692042
S1132CA000207047000002401D480068000B00F03F
S1132CB00F00C01E082830D8DFE800F005080B0E0E
S1132CC01114172F1A004FF4804013E04FF4C04042
S1132CD010E04FF400400DE04FF440400AE04FF4A0
S1132CE0803007E04FF4C03004E04FF4003001E0DE
S1132CF04FF480200321421E10420A4A18BF0221C9
S1132D0052684B1CB0FBF3F0C0F1005342F80C3F87
S1132D106FF0604301FB003050600020704700BF3B
S1132D200070044094440020002A01D1012070471F
S1132D30F0B41F46034603242340002B09D0042487
S1132D40E31A017001300824E141521E26D05B1EB3
S1132D50F7D1042A1ADB13D0002F11D00C460D46EC
S1132D600E46102A02DB72C0103AFAE70C2A02DB84
S1132D7032C00C3AFAE7082A02DB12C0083AFAE732
S1132D80042A03DB01600430121FF9E7002A05D08E
S1132D90017001300824E141521EF7D1F0BC00203B
S1132DA07047000040682C49405C70472B494A68D2
S1132DB042B10A6813780370501C08604868401ECA
S1132DC04860704700210170704710B55A280CD133
S1132DD0214A01238B54142404FB01210FF20D0317
S1132DE0CB60BDE81040D16A084710BD1A49C96AD2
S1132DF0084730B5184D85B0E962044668460FF2BD
S1132E0060011422FEF720FC6068A268022190474A
S1132E106068142101FB00510A1D694600F091F815
S1132E20002005B030BD10B504460B48616814227B
S1132E3002FB0100001D00F0EAF86068A268BDE82A
S1132E401040002110470548016042604168002994
S1132E50FCD10020704700006C470020644700202C
S1132E60F5080020130900200000000008000000FD
S1132E70010100002DE9F041044682B0D4F800803D
S1132E800FF2E41050F82870F86A261D00012BD5C3
S1132E90B268100028D041464FF49670904723E062
S1132EA000F04BF820699DF80050092805D300F084
S1132EB044F89DF8000045EA00252069112805D34F
S1132EC000F03BF89DF8000045EA00452069192808
S1132ED005D300F032F89DF8000045EA00657D63F3
S1132EE0F86A40F00070F862F86A8001D8D4F86A91
S1132EF0800320D5BD6BF86A40F40030F862414687
S1132F007268E8B290472069092804D328047268DB
S1132F104146000E90472069112804D328027268A4
S1132F204146000E904720691928E0D37268414653
S1132F30280E9047DBE7BDE8F381326841466846D6
S1132F401047F0B504460FF2201085B050F82470F5
S1132F500D46164614213046FEF70CFF0ECD301DEB
S1132F600C3D0EC03460E86830613D4814B1012C5A
S1132F7004D007E0016841F4805102E0016841F4A3
S1132F8000510160384600F09AF800208DF80000E6
S1132F90ADF80C006946E8680190287C8DF80800BB
S1132FA0687C8DF80900384600F066F868BB38681C
S1132FB020F48040386001220121384600F0ABF84B
S1132FC02848002100F8341000EBC40001224660B8
S1132FD01921384600F0EAF801221121384600F0A0
S1132FE0E5F801221B21384600F0E0F80020786360
S1132FF00121F86A40F00070F8622046FEF710F8EC
S11330003868400840003860002005B0F0BD70B555
S113301005680FF25400124C50F8256015B1012DCB
S113302006D00CE02068C00418D50021002004E07C
S11330302068800412D500210120FDF7F1FF3046FD
S113304000F03DF815B1012D04D070BD206820F4C6
S1133050805002E0206820F40050206070BD000021
S11330603C800440A447002000C0024000D002403D
S11330704001474A1150704738B50D460446287838
S1133080444A6101C043505000212046FFF7F0FF3D
S11330902A1D0021204600F044F810B140F23110FE
S11330A032BD6A7B297B204600F021F800F001F84C
S11330B032BD206820F0405020600020704710B5D9
S11330C004460122206820F4804020600121012070
S11330D02060204600F01FF82F48E0620020A06026
S11330E0E0602061206344F20100206010BD30B52F
S11330F00368C3F380331BB1046824F48044046080
S11331004401264D295126490A511BB1016841F455
S11331108041016030BD4001224B195022490A50C0
S1133120704730B51568042D09D3112D02D30368F7
S1133130DB0F04D1212D05D30368DB0F02D140F24C
S1133140311030BD00EB81015379147900686D1E94
S11331505B06A406ED06C00FC86803F0007304F014
S1133160806405F0F0450AD020F0FE4092792843AF
S113317020431206184302F08072104304E020F04A
S1133180FC40284320431843C860002030BD0000A1
S11331907C0000423800004200000A9A34000042D9
S11331A0300000422C0000422800004210B5036B9E
S11331B001248C40A34302FA01F11943016310BDB9
S11331C04068A049405C704738B504465A2C08460C
S11331D00BD19C4D012141550FF2110100F0C2FAAF
S11331E06968BDE834405A20084731BD95494968AB
S11331F00847F0B587B00446102004904FF6FF77D7
S11332000020ADF81400904D90488068016901F1E8
S11332109C0205F140061388BB421ABF5B055B0D97
S113322040F22313B3825288BA421ABF5205520D98
S113323040F22132F28291F8991001F00F020F2A24
S113324002D10120B07424E00022B2740A071BD515
S1133250052232740069B0F89A00020A8DF80B2036
S1133260420902F007028DF80920820800F00300E9
S11332708DF80C0002F00702080900F007008DF831
S11332800A208DF8080006E001F0070005283074D4
S113329001DB04203074012001902B4605F1580015
S11332A00090012204A9E0B200F01AF996F9100086
S11332B0052806D10420307402A9E0B200F0EBF82E
S11332C007E00FF2941100EB80004118E0B200F027
S11332D0E2F8B07C28B1012070740121E0B200F062
S11332E037FA4FF0FF320021E0B200F0DAF800279D
S11332F006E04FF0FF330021E0B200F0DCF87F1C61
S1133300FFB204983A468242F3D30020307008207A
S113331070603246F38A0821E0B200F078F908219F
S1133320E0B200F010FA002030720820F06005F1DD
S11333304802B38A0921E0B200F01EF907B0F0BDDB
S113334010B504463F4841606068A2680221904776
S11333506068FFF74EFF002010BD10B5044660689A
S1133360C0B200F07CF96068A268BDE8104000219A
S113337010472DE9F043DFF8D08083B00446894636
S11333801546002608F14C0711E00820386008367D
S11333904FF47A700190CDF8009008F1480260680B
S11333A03B890921C0B200F000F938688144AE427B
S11333B005D2A81B0928E8D238602E46E8E7002089
S11333C0BDE8FE83224951F8200000F03CBB70B5F3
S11333D004461F481F4E50F82450B07860B3286A42
S11333E0717801291FD144F20801084209D010F470
S11333F00C4F06D10121284600F07CFB00207070A0
S11334001AE03078401E40B2002848BF04203070D3
S113341096F900100FF2400001EB810109182046D3
S113342000F039F808E010F44C4F05D0204600F0C5
S113343094F92046FFF7DDFE2846BDE8704000F011
S113344002BB00009C47002030440020944400202C
S113345074E5FF1F804400200404041703040404DB
S11334600B03040404050304040403030404040216
S113347003000000012100F01F029140DFF8F42254
S113348005E0012100F01F029140DFF8EC22400921
S113349042F820107047DFF8E42252F8200000F0D0
S11334A0CBB980B51146DFF8D42252F8200000F0E1
S11334B0F0FA002002BD10B514461A46DFF8BC32FB
S11334C053F8200021B92146BDE8104000F0C7BAE6
S11334D0012904D12146BDE8104000F0C9BA10BD4D
S11334E02DE9F84307460C46A448089950F827806C
S11334F015461E46B1E80C10DFF884920C2010FB30
S11335000790A0E80C109F48016841F01001016089
S11335104046099900F05CF9404600F03DF9404608
S113352000F06BF92168404600F046FA002140465D
S113353000F0BDFA002106F11000FDF7BBFE0021EA
S113354006F12800FDF7B6FE8F483856FFF792FFC4
S11335508E483856FFF78EFF8D483856FFF78AFF9E
S113356015B1404600F050FA00203060706009EB5D
S113357087008661BDE8F18330B5804C804D85B00D
S113358054F8204005EB8000806981605068039006
S113359010788DF8080001AA0820019000200090FE
S11335A0204600F06AF905B030BD2DE9F0438846A5
S11335B0734901EB800185B08D69704951F8209001
S11335C050680390414610788DF8080001AA0C2039
S11335D001900C980090484600F04FF9040012D175
S11335E04146484600F001FA0D9F394605F11000A6
S11335F0FDF778FE0646032EF7D04146484600F014
S1133600FBF906B10524204605B0BDE8F08370B58A
S11336100C465A4984B051F82060594901EB8000A6
S11336201D468069446021465068029010788DF8E8
S113363004006A460F200090304600F059F928B97A
S113364000F006F810B9042000F002F804B070BDD0
S113365000902B466A462146304600F049B9F8B539
S113366004464748474E00EB8405AF693068C006FE
S11336701ED507F11000FDF773FE07F12800FDF7D2
S11336806FFE444800F016F83F4800F013F83F4836
S113369000F010F83E4800F00DF8384850F82400C7
S11336A000F0BDF80020A861306820F01000306000
S11336B00020F2BD2056E4E62DE9F04180462F4873
S11336C086B050F828502E4800EB88018E690C21F2
S11336D011FB0807286BA96A08400090009860B3A2
S11336E070680099C140C8071CD506F12800FDF791
S11336F02BFE7168284600F053F9716801AA284628
S113370000F02BF968B9002406E001A820187A68B3
S1133710407A41469047641C9DF80C00E4B2844210
S1133720F3D3A868B0680099C140C80744BF06F144
S11337301000FDF709FE00982863284600F083F97D
S113374006B0BDE8F0810D4A52F8200000F04DB9F2
S11337500A4A52F8200000F0AAB9084951F820009A
S113376000F004BA064A0C2303FB002041607047B2
S11337700000000000E100E080E100E074E5FF1FCC
S1133780B44700203C8004407EE5FF1F80E5FF1F16
S113379082E5FF1F7CE5FF1F0168C1F3005141B1C1
S11337A001684900490801600168C1F3005100291A
S11337B0FAD170470168C90F09D14201DFF880339B
S11337C0012199500168C1F300510029FAD07047D2
S11337D0001D4001DFF86C23115070470168C1F3EC
S11337E0005149B94201DFF8603301219950016861
S11337F0C1F340610029FAD1704710B50446FFF7C0
S1133800EDFF204600F013F9DFF84003206160610A
S1133810A061204600F0FFF80020A06210BD10B5A2
S11338200446FFF7DBFF0020206560602046FFF7B9
S1133830C1FF0020606010BD38B500F0BAF86068C0
S11338404FF6F871084060606068AA78297812041D
S113385001F0070102F4E02211436A78D20402F471
S113386060121143EA7841EA02612A79920502F46E
S1133870400211430843606097E0F0B500EB01108B
S113388005998030C9B100248460C46007E0C4F1A4
S11338900707C668FF00BD403543C560641C9568D2
S11338A0AC420AD2655C042CF1D2C4F103078668E9
S11338B0FF00BD4035438560F0E74168DFF8904282
S11338C000F036F8016800F02AF8936841EA0341F1
S11338D0016011680F2909D01C2905D1016841F440
S11338E0801101600C21116000F02BF80020F0BD64
S11338F010B500EB011050F8801F00F010F8946828
S113390041EA04410160DFF84842416800F010F8E0
S113391011680F2901D000F014F8002010BD21F423
S1133920C0010160016821F47021016001687047E1
S11339306FF39C41416004EA834341681943416049
S11339407047016821F07061016001681268120615
S113395002F0706211430160704710B500EB011072
S113396050F8801F11608902416858BF890C51606A
S113397000218368CC00E340541A491C04292373B2
S1133980F7D30421C3680C1FE400E340541A491C14
S113399008292375F6D30068000C1072002010BDAE
S11339A000EB0110D0F8800070472046BDE832409B
S11339B031E004460D463AE038B5FFF7FAFF2068D7
S11339C0C00905F07F0141EAC010206000220020F8
S11339D007E004EB0011401C41F8802F4A608A6024
S11339E0CA60A842F5D3E0E70000826A012303FA23
S11339F001F1114381627047826A012303FA01F1E4
S1133A0022EA010181627047001D4001514AFFE72B
S1133A1001211150704741014F4B00225A504F4B26
S1133A205A500168C1F300610029FAD1704741017D
S1133A304A4B01225A50484B5A500168C1F3006165
S1133A400029FAD07047016A11F0070F1CBF072143
S1133A5001627047A0642046BDE83240DBE770B5E0
S1133A6000F013F83A4804EB850100EA864006E0CA
S1133A7070B500F00AF8B00304EB8501800BC1F8BF
S1133A8080082046BDE87040C5E704460D4616464A
S1133A90CDE738B500F008F800F002F82061DAE765
S1133AA02B4800EA8540704704460D46BFE770B5D1
S1133AB004460D466601032D02D1FFF7B8FF04E06A
S1133AC0042D02D11E49012088512046FFF7AFFF83
S1133AD01DB92349002088510BE0201D4001012D10
S1133AE002D101211F4A03E0022D02D101211E4A05
S1133AF01150C6E738B50D46032D044602D1FFF731
S1133B008AFF05E0042D03D12068400040082060AE
S1133B102046FFF78CFF25B96101114A012050505E
S1133B200BE0201D4001012D02D100210D4A03E0CC
S1133B30022D02D100210C4A11508CE70000000034
S1133B407C0000423400004264000042FFFF030096
S1133B500000FC1F38000042700000427800004260
S1133B605C0000420C00004230000042016841F059
S1133B70007101600168C1F340610029FAD1704706
S1133B8080B5094901EBC00211F8300028B107489B
S1133B9040B15068C046C04601BD054810B15068E8
S1133BA0FFF768F901BD0000A447002000000000F1
S1133BB0BD0900200020E3E70120E1E7002000E048
S1133BC0012038B50FF2CC11704A51F8201001F5DC
S1133BD08A750C232968490703FB002402D5E96B85
S1133BE0002161722968890704D5EA6D0146D0B2C3
S1133BF0626890472868C00708D500208DF8000047
S1133C006846216888479DF80000E86428688005B4
S1133C1004D54FF4007028600120607231BD70B586
S1133C2004460FF2701050F8246058480D460C21D9
S1133C3001FB04000ECD0EC030460C3D00F0AEF882
S1133C40297A304600F0B4F8FDF75FF901463222D4
S1133C50204600F05BF806F588750121A86920F478
S1133C607C5040F48070A861686940F480606861A9
S1133C70686940F004006861686940F002006861A6
S1133C80A8690009000140F00200A861A86840F09A
S1133C900400A860A86840F00100A860A86840F08B
S1133CA00200A860A86840F40070A8602046FDF7F0
S1133CB0D3F9286840F00100286070BD2DE9F04177
S1133CC0064632480C2101FB0607FDF734F804468A
S1133CD04FF47A70FDF73FF8642101FB00F80025EA
S1133CE0787A38B9FDF727F8001BA941A94201D811
S1133CF04045F5D300213046FDF7AEF90FF29400AC
S1133D0050F82600BDE8F04100F048B830B50FF295
S1133D10840353F820004FF47A73B1FBF3F11C4B86
S1133D20B3FBF1F3002100E021464C1C03FB04F536
S1133D309542F9D329B90A2462439A4204D3012152
S1133D4002E0102928BF0F21D0F828210B0622F009
S1133D50706203F070631A43C0F828210904D0F894
S1133D60282122F4702201F470211143C0F8281193
S1133D70D0F8101141F01001C0F8101130BD034A01
S1133D800C2303FB0020416070470000D44700204F
S1133D9040420F000060064000700640D0F8101149
S1133DA041F00201C0F810110021C0F81011704751
S1133DB000F59270C2696FF34A0242EA4101C1619F
S1133DC0016821F4E021016070470000012ADFF856
S1133DD0B8290CBF0120002005E0012ADFF8A8293A
S1133DE00CBF04200820C9B212F82130184302F88D
S1133DF021007047DFF89009C9B210F8212002F0C1
S1133E00FD0200F82120704738B504460D4600F045
S1133E1099FD206900280EBF25616069056165610F
S1133E2000202861A069401CA061BDE8314000F079
S1133E3093BD38B504460D4600F084FDA06918B959
S1133E4000F08AFDC12032BD20692860206918B1C4
S1133E500069206100B96061A069401EA06100F0A2
S1133E607BFD002032BDDFF8241901F5007201F555
S1133E701471C1600161C2620C2181610B22C168AD
S1133E8001F11C030B61521E1946F9D10A6141610B
S1133E900020704710B582B004466946FFF7C9FF99
S1133EA0DFF8EC08406804F12C01400A0A68CB7D75
S1133EB040020BB9426005E040F0080402F1080337
S1133EC063600832009B5A600022009B1A70009BBA
S1133ED05A70009B9A60009B9A700122009BDA75CD
S1133EE0009A8A6000224A75C97D01F0010140EA06
S1133EF0C100DFF8A018016013BDF8B506460F46EF
S1133F0014461D4600F01EFD00F0E9FA07F00F010B
S1133F1040EA4110142111FB076141318A7802F013
S1133F20010240EAC20254608A78097802F0010270
S1133F3040EAC200AA0501F00101920D890141EA9B
S1133F40024141F08801016000F006FD00F069FBC8
S1133F50F2BD10B5142414FB010001F00F0130F878
S1133F60384F9C4288BF1C46029B1C60DFF82038F7
S1133F705B685B0A5B0243EA4111837A03F0010345
S1133F8041EAC30343F010035A60827A007A02F0D4
S1133F90010200F0010041EAC201A205920D800174
S1133FA041F0100140EA024040F0880000F038FB84
S1133FB010BDF0B5DFF8E017DFF8D447FF220A722E
S1133FC00B7D43F002030B750B7E03F080030B762D
S1133FD0002365686D0A6D0203F00F0645EA461575
S1133FE0002645F008072E603E6045F0100745F0B6
S1133FF018053E602E60142505FB030542356E70DE
S11340002E700025DFF88067DFB25B1C06F82750AE
S1134010062BDED3257001230B701C300B7D03F0BF
S1134020FD030B75C57302230380012343800A73C8
S1134030087940F08D000871087D00F0DF000875F4
S11340400020F0BD2DE9F047DFF84C5788B08146D9
S1134050287CDFF83C678DF81C00287C0009009060
S1134060012814BF0228287C0821287C2A7C297076
S1134070C0F3C0007168009B490A490241EA431138
S113408041EA0013C2F3800243EAC2021268C2F397
S1134090094AC2F3830202920D2A0CBF4FF00108B1
S11340A04FF00008009A142303FB029202F130043B
S11340B0009A4AEA0202019270B32768002F25D0C1
S11340C0F8685044F860B968091AA07C80F00100CF
S11340D0A074207C80F00100207402D020898245E5
S11340E015D200F08CF820604846FFF78DFE208939
S11340F0824504BF009800285ED10120307000235F
S1134100D9F804000022002100F093FD74E0394640
S1134110484600F0E9F96FE00198002854D030785F
S113412008B1002030706768002F65D0F87D68B949
S1134130E07CFA6800F0010041EAC0004168786858
S1134140101881421CBF524600F0E9FDF868504443
S1134150F860B9680E1A0098002804BF02980D2868
S11341600ED101220021484600F0B8FA09F14000BE
S1134170012101704170C17881F00101C17007E033
S1134180607C80F001006074E07C80F00100E074E9
S1134190B868002818BF002E02D02089824506D2B4
S11341A000F02DF860604846FFF72EFE0CE039461B
S11341B0484600F0BEF91FE00198002801BF30789E
S11341C000284846FFF766FED9F8040003908DF8EE
S11341D01A8003A900988DF818009DF81C00C008E7
S11341E000F001008DF81B000098C0B200F0EBFB5A
S11341F0287D00F0DF00287508B0BDE8F087F86876
S1134200059039467868049000207047DFF88815D7
S113421004220A70DFF884251379127842EA032213
S1134220028420200870704770B5044600251420CD
S113423000FB054000F13806B078012822D1D4F8FB
S1134240AC002946FFF7D6FDDFF844053288406804
S1134250400A400205F00F0140EA4110B17A01F032
S1134260010140EAC101920541F01001920942F0B6
S113427008020A60F17A01F0010140EAC1003188C4
S113428000F01EFA6D1C062DD1DBDFF80C15802022
S1134290087094F83A00012806D1002084F83A0006
S11342A02046BDE87040F5E570BD30B5DFF8E84460
S11342B0DFF8EC5485B0207821790840000744BF2A
S11342C02846FFF7BFFE207821790840C00710D5A3
S11342D001202070207C6968009100098DF80C0091
S11342E069460020ADF80E0001900290102000F005
S11342F06AFB207821790840400744BF2846FFF72D
S113430085FF207821790840000644BF2846FFF73E
S11343108BFF05B030BD70B50446DFF884640D46EC
S11343203046FFF7A0FDDFF87C14DFF87C0408605A
S1134330FCF75CFCC6F8A8002E607460002070BD19
S113434070B506460C4604F1280500F0F7FC287009
S1134350304600F0EBFCC4F8AC001020A870FF203D
S1134360DFF8346430702246DFF84004017801F04D
S11343707F0101702878DFF8381400F0E4FC08B9F4
S11343808A2070BDDFF80814DFF800044860010AD1
S11343903177020CDFF81C140A70000E08712046F5
S11343A0FFF707FE002070BDDFF80004017841F03C
S11343B080010170DFF80004017841F0010101700F
S11343C0DFF8F803017801F07F01017000207047E5
S11343D038B50D46044629786A78142010FB01414B
S11343E05118012281F83C20AB78A98A012B05D110
S11343F0B1F5806F05DB40F2FF3102E04129A8BF2F
S113440040212A7810FB024282F83E302A786B78E9
S113441010FB024282F83F302A7810FB02421187D7
S11344200022297810FB014181F83A20297810FBF9
S1134430014181F83B2029786A7810FB0141403121
S113444032B94A70297810FB01400021416305E02C
S113445000220A70297810FB01400263A878012821
S113446018BF01222978D4F8AC00FFF7AFFC6A78B2
S113447002B101222978D4F8AC00FFF7AEFC6878C9
S1134480002801BF287800282046FFF703FD0020FC
S113449032BD70B505460E46144600F01FF9BA4900
S11344A0002001F8260006F00F0100F018F840EA99
S11344B0411004F0010140EA01104FF0FF31416066
S11344C040F008004160142010FB06504FF6FF71C5
S11344D001872018002180F83C10002070BDAC48F2
S11344E04068400A40027047F0B50D4683B0044668
S11344F0A868E968401A01901426E86818B9297870
S113450016FB01410D6301A900916968019B4218E2
S113451029782046FFF71DFD070008D0287816FBF0
S113452000400021016320462946FFF76DFC384610
S1134530FEBD2DE9F0410D460446E868A9680E1A4F
S1134540142718B9297817FB01414D63297817FB03
S11345500141098FB14238BF0E466968421891483B
S1134560006858B116F0030F08BF12F0030105D01C
S11345700021E975414201F003010A182978334604
S11345802046FFF7BAFC5FEA000808D0287817FB3A
S113459000400021416320462946FFF735FC002EE8
S11345A004BF287800280CD129462046FFF72CFCAC
S11345B094F8430080F0010084F843002046FFF79C
S11345C069FC4046BDE8F08170B50D46142111FB2D
S11345D0050101F138060121F170B1701446294634
S11345E000F07CF86A49308849688005490A8009E6
S11345F0490205F00F0240F08C0041EA42113CB13F
S1134600B27A02F0010241EAC20141F0100104E071
S1134610F27A02F0010241EAC20100F001F870BD31
S113462008606548017801F0DF01017000207047DF
S11346302DE9F84381460D46142010FB059000F146
S113464038070020F870B8701646D9F8AC00504C02
S1134650FFF7D0FB05F00F004FEA4018D9F8AC0083
S113466096B101222946FFF7B1FBD9F8AC0001222B
S11346702946FFF7B2FB002038726068B97A00F06F
S113468025F840F0100014E001222946FFF79EFBB4
S1134690D9F8AC0000222946FFF79FFB002078726E
S11346A01DB94846FFF7F6FB06E06068F97A00F0AA
S11346B00DF8398800F004F8FFF7B3FFBDE8F28382
S11346C08905890941F0080101607047400A48EAF8
S11346D0402001F0010140EAC1007047F0B50646F0
S11346E00C46142085B0154610FB04601DB9476BB9
S11346F00021416302E0076B00210163C7B1394621
S11347003046FFF781FB4FF0FF300290694678682E
S11347100190706800908DF80C4000208DF80E0018
S1134720280018BF01208DF80F00204600F04BF937
S1134730002005B0F0BD224A137803F080030B4338
S11347401C301370C173012101800020704780B5B3
S11347501C490A7800220A700A7D02F080020A7558
S113476000220A7415490A7842F040020A700A7855
S113477042F080020A70FF218183D0F8A800FCF780
S11347803AFA002002BD0000C0200740004E00207D
S1134790084800208800080080200740A020074027
S11347A010480020C0480020105000201C20074062
S11347B0F31D0020B020074094200740002107404B
S11347C0982007408420074001F00F01142313FBB5
S11347D0010090F83A0010800020704738B501F0CD
S11347E00F041425FF2315FB0405012A05F83A2FAD
S11347F004D1CA092146FFF7E7FE06E032B9697819
S113480021B16A792146FFF713FF0346184632BDEA
S113481070B504460D46D4F8A8001646FCF7E7F92F
S1134820012D04F11C0007D0042D07D0052D07D05D
S1134830062D08BF468004E0068002E0468100E0C1
S113484086801BE070B504460E46D4F8A8001546D1
S1134850FCF7CDF9761E052E04F11C000ED8DFE816
S113486006F0030D07090B05008806E0408804E004
S1134870C07B02E0408900E080882880D4F8A8004A
S1134880FCF7B7F9002070BD38B5044600250022B6
S113489029462046FFF7FDFD012229462046FFF761
S11348A0F8FD6D1C062DF2DB2046FFF782FB204647
S11348B0FFF7D9FA002032BD70B5A0F11003DBB2C6
S11348C00829B8BFFB2B1CDA03F0030423F003030D
S11348D003F1604303F56143E400D3F80053FF267A
S11348E04901A64001F0E001B543A1402943C3F8C2
S11348F0001312B100F008F801E000F010F80020F5
S113490070BD4FF0FF3070BD1038C0B2FB2805DA1F
S1134910012100F01F029140144A0DE009E0103813
S1134920C0B2FB2805DA012100F01F029140104AB1
S113493002E04FF0FF307047400942F82010002099
S1134940704700000B480168002900D172B6016865
S1134950491C0160704700000648016800291EBF19
S1134960491E0160002900D162B6704700E100E0F1
S113497080E100E0E048002038B50D460446687B3D
S113498038B1102802BF002204F1080000F06EFACA
S113499004E0002204F1080000F0DAF900200C2100
S11349A001FB004101F13C026B7B117A994205D174
S11349B05168126828469047002032BD401C0828E0
S11349C0EDD3832032BD0A68487310F07F0307D00B
S11349D000F07F00102803DAC87B43EAC010487354
S11349E01046C9E74268126B13001CBF00681047E9
S11349F0FF20704770B500F01EF86068E90606D520
S1134A00436A18000AD000F0ECF8984718E0436CA9
S1134A10180003D000F0E5F89847F7E714E070B504
S1134A2000F009F86068036C180003D000F0D9F8AE
S1134A30984705E008E004460D461646FFF782BF96
S1134A40FFF78AFF002070BDFFF786FFFF2070BDCF
S1134A50F8B52B4E06F19C070446387801280D461C
S1134A6029D0A4220021304600F04BFB01203870ED
S1134A707C70FCF7BBF823497860602212FB0411B8
S1134A80F161FF2200210C2313FB0163491C082957
S1134A9083F84420F7DB002C18BF012C0DD11A4FEA
S1134AA077603A68100002D031463046904730684B
S1134AB038B98720F2BDC120F2BD00203870C02073
S1134AC0F2BDF0603661204600F026FB30B1796B10
S1134AD008001CBF30688847C420F2BD7A68100003
S1134AE005D031682046904718B92E60F2BDFF20EA
S1134AF0F2BD796B08001CBF306888478D20F2BD79
S1134B00EC4A0020A051002084E5FF1F10B54B683B
S1134B109B68024600201C0003D0BDE810401046EC
S1134B20184710BD38B5040001D1FF2032BD04F18F
S1134B309C056868FCF75FF86068416B08001CBF5F
S1134B40206888470020287032BD00B587B0C0B106
S1134B500B788DF800308B788DF801304B68ADF808
S1134B60143049788DF802108DF816200021029136
S1134B70039141688A69110003D00068694690472F
S1134B8000E0FF2007B000BDF8B500F097F81F461D
S1134B9001D1FF20F2BDFFF7D5FE00200C2101FB5F
S1134BA0004292F84420AA4203D1FFF7D5FE8420A4
S1134BB0F2BD401C0828F2D3002001FB00423C3225
S1134BC0137AFF2B06D1157216605760FFF7C4FEE7
S1134BD00020F2BD401C0828EFD3FFF7BDFE812062
S1134BE0F2BD2068324629467047F8B504000F46E6
S1134BF015461E461BD06068826C100017D02068D2
S1134C006946904798B9FFF79DFE00980770002009
S1134C1000F033F80269100009D000992068904729
S1134C2000F050F8002C0CBF00209420F2BDFF20AF
S1134C30F2BDF8B504000F4615461E461BD0606849
S1134C40826C100017D020686946904798B9FFF726
S1134C5079FE00980770012000F00FF8C268100078
S1134C6009D000992068904700F02CF8002C0CBF64
S1134C7000209320F2BDFF20F2BD009948700098F7
S1134C8086600098456000200099C860062000995D
S1134C90C8706068704770B500F010F80CD0FFF76A
S1134CA051FE6068036A180006D0FFF79AFF984720
S1134CB000F008F8204670BDFF2070BD04000D46CA
S1134CC0164670470446FFF747BE10B538B143682F
S1134CD0DB6B1C0003D0BDE8104000681847FF20C0
S1134CE010BD00280FBFFF20016242620020704700
S1134CF000280FBFFF208162C26200207047002895
S1134D000FBFFF20016342630020704728B1416850
S1134D10C96C0A001CBF00680847FF20704710B523
S1134D200446FCF781FC204610BD000000280CBF9F
S1134D3001480020704700000020074000280CBFF5
S1134D404520FF20704700F005BAFFF7B5BD00000D
S1134D507FB504460020ADF8080003900E46A06815
S1134D6002AA0121FFF746FEB07BCE25002850D0D1
S1134D707168082204F10C00FFF7D1FF208A217B1F
S1134D8020826022E089E0811142608A608217D12A
S1134D90607B354901EB8002966A32005AD0BDF837
S1134DA00820032A56DA00EB40004018105C012862
S1134DB050D101AB03AA04F10C012046B04726E010
S1134DC00190D8B1207B000618D4019808305528EA
S1134DD005D3A06800220021FFF777FF7FBD60693B
S1134DE0082204F10C01FFF79AFF6069019B00F1AE
S1134DF0080230680021FFF7F8FE7FBD266A300004
S1134E0028D0636A01AA03A904F10C00B04705463F
S1134E1020E0BDF80800042805D16188A068C9B263
S1134E20FFF7E0FD7FBD207B00061CD4F07BD0B9EA
S1134E30608AC0B1206A48B1B06808300190636AE2
S1134E406069256A01AA03A9A8470546B06810F15C
S1134E50010F08D001A8009003AB04F10C02E9B2E1
S1134E60204600F029F87FBDA046002030B5044656
S1134E7083B0A0680D46FFF749FF00208DF80200BB
S1134E808DF80000012240200190694600208DF831
S1134E9001002868FFF759FE01208DF80200012265
S1134EA028686946FFF751FEE269A06918B1A36951
S1134EB000210020984737BD38B50446CE29154651
S1134EC0184606D1A068BDE8384001220021FFF74A
S1134ED0FCBE0499EA880B689A4238BF0A600268EB
S1134EE00B68A0680021FFF7A4FE2878000608D507
S1134EF0A06801B0BDE83040002300220021FFF784
S1134F0074BE31BD70B5154604461E460A78FF20AE
S1134F101F231A4209D1A06822460621FFF76AFD21
S1134F20217801F00301218013E002F01F03012B1B
S1134F3003D10021218001210CE002F01F02022A8A
S1134F4009D1888840F01001A0682246C9B2FFF751
S1134F5051FD022131602C60C0B270BD70B50446B1
S1134F6082B000201860CE250A7848781F231A42A0
S1134F70C0F3400012D1897811F0030138D001291F
S1134F8036D1002814BF11261226A3690025180063
S1134F902ED0626A00213046984729E002F01F02B1
S1134FA0022A02BF8A7803231A4221D189888DF804
S1134FB000109DF800209DF8001001F00F01D209A7
S1134FC020B1A068FFF781FE132608E09DF80000D9
S1134FD014260F23184203D1A068FFF75CFE054690
S1134FE0A369180004D0626A6946304698470025D0
S1134FF0E8B276BD38B50446002018600D46A068B6
S113500004220121FFF70BFD68886080002032BD77
S113501001211960303010600020704738B500223B
S113502004461A604888ADF8000000B90122A0685F
S11350300121FFF7F4FC0546BDF80000A3692086B2
S113504018000BD0E269694601209847BDF80000BA
S113505020B1E269A369002103209847E8B232BD78
S113506038B50446012018601546A06A4368180044
S113507001D1CA2032BD8988E06A2246C9B2984764
S11350802C6032BD38B5044600200D4618602878DF
S113509000F00300012801D0042032BDA06A836817
S11350A0180001D1CA2032BD6A88A988E06AD2B248
S11350B0C9B29847A369180003D0E269A91C022069
S11350C09847002032BD38B50446022018601546C2
S11350D0A06822460521FFF78DFC2C60C0B232BDCA
S11350E030B583B0846A2468250001D1CA203EBD4E
S11350F04D8801930092EAB28B88C06A290AA047BE
S11351003EBD10B5044610460A4601462046FCF74B
S1135110CDFA204610BD000010B500244FF0FF3139
S113512000B10C4694B980B90948002101701021DE
S11351300170017941F0400101710020FFF7FEFD8B
S113514001220421FFF701FE00E00C46204610BDB9
S113515008210740F8B504460D4616460E4F452C67
S113516004BF3D607E60002000F018F8844208BF50
S1135170FD60012000F012F8844208BF3D61312C2B
S113518004BF7D61BE600120F2BD034801680A00CE
S11351901CBF406808477047C04A002004283DBF30
S11351A0024951F820001030002070472C4500209F
S11351B03F4A10B1012808D070471068012914BF74
S11351C020F0400040F0400006E0106801290CBFC8
S11351D040F0800020F0800010607047406835493E
S11351E0405C704734494A6842B10A6813780370D6
S11351F0501C08604868401E4860704700210170D8
S1135200704738B504465A2C08460BD1294D012164
S113521041550FF21501FEF7B2FD6968BDE834404F
S11352205A20084731BD0000224A01238B5451689B
S1135230084770B504461F480FF2840284B04160E9
S113524069461E488068006990F88100FF2808BFFD
S1135250102068CA68C18DF8080002216068A2683D
S1135260904760680121FFF7A3FF60686946FEF775
S1135270D6FC002004B070BD10B50446012160685E
S1135280FFF796FF6068FEF719FD60680021FFF7DD
S11352908FFF6068A268BDE81040002110470648EF
S11352A00160426041680029FCD100207047000081
S11352B034800440CC480020C4480020944400209A
S11352C02D2D00204B2D00200001000070B50D0095
S11352D082B00446164601D1002076BD6A4600F02D
S11352E071F830B9009B9B685B68324629462046BA
S11352F0984776BD70B50D0082B00446164601D1BC
S1135300002076BD00F07FF800B14CE000F047F8D3
S113531068B9009B9B689B6832462946204698479B
S11353204E49002806BF009A926800220A6076BDA2
S113533038B504460D466A4600F044F8A0B9009812
S11353408068406908B9662032BD2946204600F0CD
S11353505AF810B142F2D87032BD009A926852697C
S113536029462046904732BD002DFCD1002032BD95
S113537070B50D0082B00446164601D1002076BDFA
S113538000F041F800B10EE000F009F830B9009BDC
S11353909B68DB68324629462046984776BD6A46B4
S11353A0294620460EE042F2D87076BD10B52B4C4B
S11353B02168002029B109690A0002D08847002128
S11353C0216010BD70B5264C6468002918BF002AFE
S11353D042F2D87314D000E00C348CB12568002D4F
S11353E004BF6668002E01D1A6684EB1A84224BF4E
S11353F065688542F0D30818401E854228BF002303
S11354001460184670BD30B5154A92681269536B22
S1135410A3B10918491E002302EBC3046034656874
S11354202468002C08BF002D05D0854228BFA14266
S113543001D3012030BD5B1C022BEDDB002030BD0D
S113544010B50748446804E00068010018BF8047AD
S11354500C34A0680028F7D110BD0000D448002007
S11354609444002010B58F488068006900F17004EE
S113547030224FF470712046FCF7E6F820688A4920
S1135480884204D0FF2230212046FDF70FF8FBF7B5
S1135490AFFD002010BD38B5824CA06805694B20D3
S11354A0E87005F110020120A8700421052068703D
S11354B0012028705020E8710120A8710220687131
S11354C0002028715420E8720120A872002068721C
S11354D028720120286368634EF6FF70A86300F009
S11354E052F805F11402012100F04DF805F11802FB
S11354F0002100F048F805F11C02022100F043F8F5
S113550005F12002032100F03EF805F14C020521CB
S113551000F039F805F15002062100F034F805F1E5
S11355205402072100F02FF8002028666866002145
S11355305E48A8665E48E8666069E96007E095F839
S11355408030134202D0EB681A43EA60491C1822E7
S113555002FB01021268002AF1D156480168A964CD
S11355604168696481682964C068E863606850F8C8
S11355700C1F696241680068081A401CA862012077
S1135580A865002032BD04F12000FCF7ADBF000087
S1135590F8B51446434A484F91680426401E0969E9
S11355A017281D464CD8DFE800F00C121416181A00
S11355B0204B4B22262D241C1E30333E41434547AD
S11355C04B4905B12E6004B121600020F2BD0C31BD
S11355D0F7E71031F5E71431F3E71831F1E720313B
S11355E0EFE72431EDE72831EBE73831E9E73031F3
S11355F0E7E73431E5E7D0694169496988473860AC
S11356003946DEE710266031DBE72C480068F6E710
S1135610694602F12000FCF793FB9DF80000002886
S1135620EDD00120EBE710263C31CAE74C31C8E746
S11356305031C6E75431C4E75831C2E70831C0E7F6
S113564042F63C00F2BD174A92681369401E0628D0
S113565042F63E0220D909380CD0401E01281BD93D
S1135660801E0DD0401E032816D908380ED0801E87
S113567012D014E0002918BF012909D11963704719
S1135680002918BF012903D159637047032901D3A5
S1135690104670479965704742F63D00704742F6E0
S11356A03C007047944400206B63666700E0FF1F72
S11356B0FF550020548004409C490020248004406D
S11356C0012100F01F0291406D4A04E0012100F025
S11356D01F0291406B4A400942F820107047002194
S11356E0C170817001700421417000218172417484
S11356F07047F8B5644E3360130191FBF3F6330140
S11357000025B1FBF3F3044693424FF0FF3038BF5A
S1135710761E00D310D001274B0007EB461CB3FBC9
S1135720FCF39A4234BF9B1AD31A984224BF1846FA
S11357303D467F1C212FEFDB642192FBF1F101EB4D
S1135740410188423FD25149514F8C4206D05149C0
S11357508C420AD050498C420ED014E01F20FFF72F
S1135760AFFF386840F480600CE02120FFF7A8FF09
S1135770386840F4006005E02320FFF7A1FF386893
S113578040F480503860E07800F0F300E070310AB3
S11357900020A07001F01F01207800F0E000084311
S11357A020706670A07A00F0E0002843A072C02048
S11357B06074E07840F02000E070E07840F00C0085
S11357C0E0700020F2BD0120F2BD02791206FCD582
S11357D0C171704731480178890600D50AE07047E5
S11357E02F4801788A0701D5C0787047890600D50B
S11357F000E07047C07824490968084729480178BF
S1135800890600D5F6E7704758B52049204E8842EE
S1135810044606D01F4988420AD01F4988420ED048
S113582014E01F20FFF752FF306840F480600CE062
S11358302120FFF74BFF306840F4006005E023208F
S1135840FFF744FF306840F4805030602046FFF793
S113585046FF0E48844206D00E48844207D00E48C4
S1135860844208D051BD306820F4806006E030687E
S113587020F4006002E0306820F48050306051BDB4
S113588000E100E080E100E0244A002000A006409E
S11358903480044000B0064000C0064004A0064026
S11358A004B0064004C0064038B504466946606842
S11358B0FBF7BDF908BB6068FBF731FB0146606884
S11358C0012804D002280CBF29482A4800E02A48AD
S11358D02A4D009A2B68FFF70CFF58B96068A2683C
S11358E00221904729685A2088472968A6208847BA
S11358F0012032BD6068FBF783F9002032BD10B58A
S113590004461E4801606068A268012190476068EF
S1135910FBF776F9002010BD10B504466068012835
S113592004D002280CBF1248124800E01248FFF7C6
S11359306BFF6068A268BDE810400021104770B595
S113594004460D46164602E00978FFF73EFF30464E
S1135950461E58B1294660684D1C012804D002280F
S11359600CBF03480348EFE70348EDE770BD0000B0
S113597000C0064000A0064000B00640284A0020AF
S1135980A649D1F88820531C5218C1F8883082F8EF
S11359902000D1F8880000F03F00C1F8880070476B
S11359A000207047B8E02DE9FC410C00154614BFF7
S11359B0002D0420984628D0984F002007F1900627
S11359C02860707000F0A8F818B11EE0A22000F062
S11359D075F820213846FCF7CDF942463946684629
S11359E000F0E7F810B1002129600EE0394668465E
S11359F000F030F9BDF804108142E7D10120307085
S1135A002760BDF8020028600020BDE8F6812DE97A
S1135A10F0410C0082B015461E4635D0212D33D2FC
S1135A2000F07AF800283FD1DFF8F08198F891006F
S1135A3010B1002088F8910008F160075A203870EE
S1135A40A42078700EB1A52078707D802DB12A46EF
S1135A50214608F16600FBF7E7FD08F166013846C8
S1135A6000F0F8F8B880A91D384600F064F8D8B9F9
S1135A70684600F0DDF8B8B99DF80100A12812D0FD
S1135A80A22806D0A32801D004200DE042F212700F
S1135A900AE07888811D384600F04DF820B99DF859
S1135AA00100A228E4D00020BDE8F6815C48012171
S1135AB081700021017070472020704780B55A2101
S1135AC08DF800108DF801000120544981F89100EF
S1135AD00221684600F02FF802BD10B50446504874
S1135AE082B00178427880781140014211D10FF2DE
S1135AF094100088ADF80000022223695B686946AF
S1135B002046984723690FF280115B6808222046DB
S1135B10984742F2137016BD4148017819B100212B
S1135B200170A12004E0817819B100218170A320C3
S1135B30C4E7002070473B4AD3690A460146184629
S1135B401B695B6818472DE9F14F8B461446FBF738
S1135B50F2F806464FF47A7089466043FBF7FBF887
S1135B600025DFF8B8A00446A8460AF188070EE02D
S1135B707868396888420CD05044009990F8200025
S1135B8068546D1C7868401C00F03F0078605D45E7
S1135B900CD0002CECD0FBF7CEF8801B61EB090194
S1135BA0414501D8A042E3D3052000E00020BDE830
S1135BB0F28F70B582B005460C46164600F038F8F0
S1135BC058BB6878A62804D11648C069FFF785FF3A
S1135BD076BDA42106B1A521884201D0012076BD5D
S1135BE000F022F8BDF800106980B0B908462128F9
S1135BF0A8BF2020688000F017F8BDF80010A98025
S1135C0058B9698849B12046FBF74AFD69880A20DA
S1135C1000FB01F22046FFF796FF76BD2C4A0020D8
S1135C20BC4A0020944400201422022168468AE7DA
S1135C3010B50446002201212046FFF784FF40B935
S1135C4020785A28F6D1601CBDE810400A220121B0
S1135C5079E710BD30B583B004460D46684600F0C0
S1135C6017F804222146684600F015F86288294690
S1135C70684600F010F801A9684600F023F8BDF862
S1135C8004003EBD5AA70000000201500000AAEA29
S1135C9000210180704770B5038800240EE0655C24
S1135CA083EA052308255E001B0444BF86F480565E
S1135CB086F021066D1E3346F5D1641C9442EED362
S1135CC0038070BD008808807047000005484CF2CE
S1135CD02051C1814DF62811C1814FF4E971018031
S1135CE07047000000200540F8B5044615461E46DE
S1135CF00020174A02EB00177A6822B1401C0128E1
S1135D00F7DBC120F2BDF9607C60BE6032462046FC
S1135D10FEF7E7FF324629462046FEF7E9FF0699DB
S1135D2032462046FEF7EBFF3846F2BD0020084A13
S1135D3002EB00128A4204D0401C0128F7DB9E20AB
S1135D4070470020506010609060D0607047000081
S1135D50D84A002000281CBF4068FEF76ABFFF2015
S1135D60704770477CB50E4614461D4600F0B1F8E6
S1135D70069A0799374B032E11D0212E09D0222ED3
S1135D802AD120B903F1300010604C2008600020B3
S1135D9076BD10B903F1160010600920F6E725B9A5
S1135DA003F17C0010600420F0E70020012340F29E
S1135DB00946B54203D1032C02DA234600E0012050
S1135DC00FF2E8040C2515FB0040C46854F8234086
S1135DD014600069185CD9E7082E18DA20B90FF2AC
S1135DE0A80454F826401460012E02D11C68641CD7
S1135DF01C601C68022CA4BF00241C60126832B111
S1135E000028C4D10FF25C0050F82600BEE7CE2073
S1135E1076BD21B910480078107000207047CE205C
S1135E207047002903BF0C4802700020CE20704741
S1135E300020704730B549B909480121017007496C
S1135E40D1E90045C0E901450C301060002030BDA7
S1135E5000000000844500204D4C002050450020E7
S1135E605845002000000000120000002900000036
S1135E70000000000000000000000000000000001E
S1135E80000000004C0000000000000070450020ED
S1135E908845002000000000000000000000000011
S1135EA00000000000000000B4450020004600206F
S1135EB00400000009040000F8E6FF1FF4E6FF1FD9
S1135EC0012100F01F029140C84A400942F8201005
S1135ED0704700207047406840083C214843C4494B
S1135EE0425C002A1ABF401840780020704710B561
S1135EF0002818BF0128BE4C02D10020208010BD0C
S1135F000328FCD10120207004F11402A06BBDE829
S1135F1010402423022100F0DABAF8B515461E68B1
S1135F20B34C042800F001020BD1A86810F1010F52
S1135F3018BF002849D0E068012846DB04F10C00B2
S1135F4039E0052807D1A86810F1010F18BF00280F
S1135F503BD020612BE01219002701281F600BD0D1
S1135F60022818BF03282CD009280ED00A2825D0CF
S1135F700B2808BF117128E0242104F11400FBF759
S1135F80F9FE04F1140028601FE029688A78002AC9
S1135F9004BFCA78002A04D10878012808BFA07079
S1135FA013D0324604F11400FBF73EFB26610120B6
S1135FB0607004F10800FBF7E1F906E0080A1071CB
S1135FC003E0101D2860012018600020F2BD70B5A8
S1135FD0044688B06068864940083C2202FB0015EC
S1135FE03C212846FBF75CFBFAF772FF814E78B937
S1135FF0B068006990F8801001F0EF0180F880101B
S1136000B0680069C16821F01001C160012038E066
S1136010606830B93520FFF753FF77494FF400101B
S113602008604FF6FF72B068006930F8841F438837
S1136030934208BF914209D0704A11720188090A3B
S11360405172418891724188090AD17205F138026E
S113605040686B4910F1010F08BF6A48086069463F
S11360606948009005F1380001906848049005F1F2
S113607038000590664806906068C0B200F0B5F933
S1136080002008B070BD38B540684408A8B9614D17
S11360902868400311D560494FF40010086035208A
S11360A0FFF70EFF52483C2101FB0400806B00F017
S11360B0DDF9286820F48020286031BD10B54068DF
S11360C04B4940083C2202FB0014002104F1080063
S11360D0FBF748F9002104F10C00FBF743F904F144
S11360E00800FBF74BF9002010BDF8B540680C46DA
S11360F040081546002C18BF002D01D10420F2BD24
S11361000021296013B1012B1ED027E00126384954
S11361103C2202FB0017F87830B1B86B242307F156
S11361201402022100F0D3F90120F8704FF0FF317E
S113613007F10800FBF718F9387DB04206D0012EAC
S113614008BF02280AD169E00226E0E7B87DF97D9C
S113615040EA01203969091F814201D20120F2BDC0
S113616007F11801216028600020F2BDF8B54068ED
S113617015464608212D0C4601D30420F2BD13B167
S1136180012B0ED00FE00327FBF704F918483C213C
S113619001FB0606B07840B10020B070FBF700F9AF
S11361A03CE00427F0E70120F2BDFBF7F9F80020FA
S11361B070753775280AB575F075002C18BF002D59
S11361C005D02A46214606F11800FBF72DFAB06BDC
S11361D0242306F11402012100F072F94FF0FF317B
S11361E006F10C00FBF7C0F80020F2BD80E200E0ED
S11361F0104C00209444002004E100E0704500208D
S1136200E84A0020F4390020373A0020633A00209D
S11362108C4600203480044084E100E042F2127095
S1136220F2BD10B54469A468002300220021A047F0
S113623010BD0020704720207047FFF792BD00007A
